{
  "contractName": "AccessControl",
  "abi": [
    {
      "anonymous": false,
      "inputs": [
        {
          "indexed": false,
          "internalType": "address",
          "name": "userAddress",
          "type": "address"
        },
        {
          "indexed": false,
          "internalType": "string",
          "name": "role",
          "type": "string"
        }
      ],
      "name": "UserAdded",
      "type": "event"
    },
    {
      "anonymous": false,
      "inputs": [
        {
          "indexed": false,
          "internalType": "address",
          "name": "userAddress",
          "type": "address"
        }
      ],
      "name": "UserRemoved",
      "type": "event"
    },
    {
      "inputs": [
        {
          "internalType": "address",
          "name": "_userAddress",
          "type": "address"
        },
        {
          "internalType": "string",
          "name": "_role",
          "type": "string"
        }
      ],
      "name": "addUser",
      "outputs": [],
      "stateMutability": "nonpayable",
      "type": "function"
    },
    {
      "inputs": [
        {
          "internalType": "address",
          "name": "_userAddress",
          "type": "address"
        }
      ],
      "name": "removeUser",
      "outputs": [],
      "stateMutability": "nonpayable",
      "type": "function"
    },
    {
      "inputs": [
        {
          "internalType": "address",
          "name": "_userAddress",
          "type": "address"
        }
      ],
      "name": "isWhitelisted",
      "outputs": [
        {
          "internalType": "bool",
          "name": "",
          "type": "bool"
        }
      ],
      "stateMutability": "view",
      "type": "function",
      "constant": true
    },
    {
      "inputs": [
        {
          "internalType": "address",
          "name": "_userAddress",
          "type": "address"
        },
        {
          "internalType": "string",
          "name": "_role",
          "type": "string"
        }
      ],
      "name": "removeBlackList",
      "outputs": [],
      "stateMutability": "nonpayable",
      "type": "function"
    },
    {
      "inputs": [
        {
          "internalType": "address",
          "name": "_userAddress",
          "type": "address"
        }
      ],
      "name": "getRole",
      "outputs": [
        {
          "internalType": "string",
          "name": "",
          "type": "string"
        }
      ],
      "stateMutability": "view",
      "type": "function",
      "constant": true
    }
  ],
  "bytecode": "0x608060405234801561001057600080fd5b50610c1d806100206000396000f3fe608060405234801561001057600080fd5b50600436106100575760003560e01c806325c164111461005c5780633af32abf1461007857806344276733146100a85780634b68d431146100d857806398575188146100f4575b600080fd5b610076600480360381019061007191906106d9565b610110565b005b610092600480360381019061008d9190610735565b6101a5565b60405161009f919061077d565b60405180910390f35b6100c260048036038101906100bd9190610735565b6101fa565b6040516100cf9190610817565b60405180910390f35b6100f260048036038101906100ed91906106d9565b6102cb565b005b61010e60048036038101906101099190610735565b610439565b005b6000600160008473ffffffffffffffffffffffffffffffffffffffff1673ffffffffffffffffffffffffffffffffffffffff16815260200190815260200160002060006101000a81548160ff0219169083151502179055507fa56e21173460286ea98fc3defc7671b9b8e2ff0c6acea8d6ed30b343724e23fa8282604051610199929190610848565b60405180910390a15050565b60008060008373ffffffffffffffffffffffffffffffffffffffff1673ffffffffffffffffffffffffffffffffffffffff16815260200190815260200160002060009054906101000a900460ff169050919050565b6060600260008373ffffffffffffffffffffffffffffffffffffffff1673ffffffffffffffffffffffffffffffffffffffff1681526020019081526020016000208054610246906108a7565b80601f0160208091040260200160405190810160405280929190818152602001828054610272906108a7565b80156102bf5780601f10610294576101008083540402835291602001916102bf565b820191906000526020600020905b8154815290600101906020018083116102a257829003601f168201915b50505050509050919050565b600160008373ffffffffffffffffffffffffffffffffffffffff1673ffffffffffffffffffffffffffffffffffffffff16815260200190815260200160002060009054906101000a900460ff1615610358576040517f08c379a000000000000000000000000000000000000000000000000000000000815260040161034f90610924565b60405180910390fd5b60016000808473ffffffffffffffffffffffffffffffffffffffff1673ffffffffffffffffffffffffffffffffffffffff16815260200190815260200160002060006101000a81548160ff02191690831515021790555080600260008473ffffffffffffffffffffffffffffffffffffffff1673ffffffffffffffffffffffffffffffffffffffff16815260200190815260200160002090816103fb9190610afa565b507fa56e21173460286ea98fc3defc7671b9b8e2ff0c6acea8d6ed30b343724e23fa828260405161042d929190610848565b60405180910390a15050565b60008060008373ffffffffffffffffffffffffffffffffffffffff1673ffffffffffffffffffffffffffffffffffffffff16815260200190815260200160002060006101000a81548160ff02191690831515021790555060018060008373ffffffffffffffffffffffffffffffffffffffff1673ffffffffffffffffffffffffffffffffffffffff16815260200190815260200160002060006101000a81548160ff0219169083151502179055507fe9dce8c992623ce791725b21e857e33248d1f190a25b5168313420eebdaae99d816040516105169190610bcc565b60405180910390a150565b6000604051905090565b600080fd5b600080fd5b600073ffffffffffffffffffffffffffffffffffffffff82169050919050565b600061056082610535565b9050919050565b61057081610555565b811461057b57600080fd5b50565b60008135905061058d81610567565b92915050565b600080fd5b600080fd5b6000601f19601f8301169050919050565b7f4e487b7100000000000000000000000000000000000000000000000000000000600052604160045260246000fd5b6105e68261059d565b810181811067ffffffffffffffff82111715610605576106046105ae565b5b80604052505050565b6000610618610521565b905061062482826105dd565b919050565b600067ffffffffffffffff821115610644576106436105ae565b5b61064d8261059d565b9050602081019050919050565b82818337600083830152505050565b600061067c61067784610629565b61060e565b90508281526020810184848401111561069857610697610598565b5b6106a384828561065a565b509392505050565b600082601f8301126106c0576106bf610593565b5b81356106d0848260208601610669565b91505092915050565b600080604083850312156106f0576106ef61052b565b5b60006106fe8582860161057e565b925050602083013567ffffffffffffffff81111561071f5761071e610530565b5b61072b858286016106ab565b9150509250929050565b60006020828403121561074b5761074a61052b565b5b60006107598482850161057e565b91505092915050565b60008115159050919050565b61077781610762565b82525050565b6000602082019050610792600083018461076e565b92915050565b600081519050919050565b600082825260208201905092915050565b60005b838110156107d25780820151818401526020810190506107b7565b60008484015250505050565b60006107e982610798565b6107f381856107a3565b93506108038185602086016107b4565b61080c8161059d565b840191505092915050565b6000602082019050818103600083015261083181846107de565b905092915050565b61084281610555565b82525050565b600060408201905061085d6000830185610839565b818103602083015261086f81846107de565b90509392505050565b7f4e487b7100000000000000000000000000000000000000000000000000000000600052602260045260246000fd5b600060028204905060018216806108bf57607f821691505b6020821081036108d2576108d1610878565b5b50919050565b7f5573657220697320626c61636b6c697374656400000000000000000000000000600082015250565b600061090e6013836107a3565b9150610919826108d8565b602082019050919050565b6000602082019050818103600083015261093d81610901565b9050919050565b60008190508160005260206000209050919050565b60006020601f8301049050919050565b600082821b905092915050565b6000600883026109a67fffffffffffffffffffffffffffffffffffffffffffffffffffffffffffffffff82610969565b6109b08683610969565b95508019841693508086168417925050509392505050565b6000819050919050565b6000819050919050565b60006109f76109f26109ed846109c8565b6109d2565b6109c8565b9050919050565b6000819050919050565b610a11836109dc565b610a25610a1d826109fe565b848454610976565b825550505050565b600090565b610a3a610a2d565b610a45818484610a08565b505050565b5b81811015610a6957610a5e600082610a32565b600181019050610a4b565b5050565b601f821115610aae57610a7f81610944565b610a8884610959565b81016020851015610a97578190505b610aab610aa385610959565b830182610a4a565b50505b505050565b600082821c905092915050565b6000610ad160001984600802610ab3565b1980831691505092915050565b6000610aea8383610ac0565b9150826002028217905092915050565b610b0382610798565b67ffffffffffffffff811115610b1c57610b1b6105ae565b5b610b2682546108a7565b610b31828285610a6d565b600060209050601f831160018114610b645760008415610b52578287015190505b610b5c8582610ade565b865550610bc4565b601f198416610b7286610944565b60005b82811015610b9a57848901518255600182019150602085019450602081019050610b75565b86831015610bb75784890151610bb3601f891682610ac0565b8355505b6001600288020188555050505b505050505050565b6000602082019050610be16000830184610839565b9291505056fea2646970667358221220cb541db262f3470f34dc75d805770616a8a7fafa5d0f069457061c234695f0af64736f6c63430008130033",
  "immutableReferences": {},
  "source": "//SPDX-License-Identifier: UNLICENSED\r\npragma solidity ^0.8.0;\r\n\r\ncontract AccessControl {\r\n    mapping(address => bool) private whitelist;\r\n    mapping(address => bool) private blacklist;\r\n    mapping(address => string) private roles;\r\n\r\n    event UserAdded(address userAddress, string role);\r\n    event UserRemoved(address userAddress);\r\n\r\n    function addUser(address _userAddress, string memory _role) public {\r\n        require(!blacklist[_userAddress], \"User is blacklisted\");\r\n        whitelist[_userAddress] = true;\r\n        roles[_userAddress] = _role;\r\n        emit UserAdded(_userAddress, _role);\r\n    }\r\n\r\n    function removeUser(address _userAddress) public {\r\n        whitelist[_userAddress] = false;\r\n        blacklist[_userAddress] = true;\r\n        emit UserRemoved(_userAddress);\r\n    }\r\n\r\n    function isWhitelisted(address _userAddress) public view returns (bool) {\r\n        return whitelist[_userAddress];\r\n    }\r\n\r\n    function removeBlackList(address _userAddress, string memory _role) public {\r\n        blacklist[_userAddress] = false;\r\n        emit UserAdded(_userAddress, _role);\r\n    }\r\n\r\n    function getRole(address _userAddress) public view returns (string memory) {\r\n        return roles[_userAddress];\r\n    }\r\n}",
  "sourcePath": "Y:\\Truffle\\contracts\\AccessControl.sol",
  "compiler": {
    "name": "solc",
    "version": "0.8.19+commit.7dd6d404.Emscripten.clang"
  },
  "schemaVersion": "3.4.13",
  "updatedAt": "2023-04-13T08:50:52.434Z",
  "networkType": "ethereum",
  "devdoc": {
    "kind": "dev",
    "methods": {},
    "version": 1
  },
  "userdoc": {
    "kind": "user",
    "methods": {},
    "version": 1
  }
}