{
  "contractName": "LoyaltyPointExchangeSystem",
  "abi": [
    {
      "anonymous": false,
      "inputs": [
        {
          "indexed": true,
          "internalType": "address",
          "name": "user",
          "type": "address"
        },
        {
          "indexed": false,
          "internalType": "uint256",
          "name": "amount",
          "type": "uint256"
        }
      ],
      "name": "PointsAccumulated",
      "type": "event"
    },
    {
      "anonymous": false,
      "inputs": [
        {
          "indexed": true,
          "internalType": "address",
          "name": "user",
          "type": "address"
        },
        {
          "indexed": false,
          "internalType": "uint256",
          "name": "amount",
          "type": "uint256"
        }
      ],
      "name": "PointsRedeemed",
      "type": "event"
    },
    {
      "anonymous": false,
      "inputs": [
        {
          "indexed": true,
          "internalType": "address",
          "name": "from",
          "type": "address"
        },
        {
          "indexed": true,
          "internalType": "address",
          "name": "to",
          "type": "address"
        },
        {
          "indexed": false,
          "internalType": "uint256",
          "name": "amount",
          "type": "uint256"
        }
      ],
      "name": "PointsTransferred",
      "type": "event"
    },
    {
      "inputs": [
        {
          "internalType": "address",
          "name": "",
          "type": "address"
        }
      ],
      "name": "users",
      "outputs": [
        {
          "internalType": "uint256",
          "name": "points",
          "type": "uint256"
        },
        {
          "internalType": "bool",
          "name": "exists",
          "type": "bool"
        }
      ],
      "stateMutability": "view",
      "type": "function"
    },
    {
      "inputs": [
        {
          "internalType": "uint256",
          "name": "amount",
          "type": "uint256"
        }
      ],
      "name": "accumulatePoints",
      "outputs": [],
      "stateMutability": "nonpayable",
      "type": "function"
    },
    {
      "inputs": [
        {
          "internalType": "uint256",
          "name": "amount",
          "type": "uint256"
        }
      ],
      "name": "redeemPoints",
      "outputs": [],
      "stateMutability": "nonpayable",
      "type": "function"
    },
    {
      "inputs": [
        {
          "internalType": "address",
          "name": "recipient",
          "type": "address"
        },
        {
          "internalType": "uint256",
          "name": "amount",
          "type": "uint256"
        }
      ],
      "name": "transferPoints",
      "outputs": [],
      "stateMutability": "nonpayable",
      "type": "function"
    }
  ],
  "bytecode": "0x608060405234801561001057600080fd5b506109f6806100206000396000f3fe608060405234801561001057600080fd5b506004361061004c5760003560e01c80630f62ff3414610051578063326f823f1461006d578063a87430ba14610089578063e92e92e7146100ba575b600080fd5b61006b600480360381019061006691906106da565b6100d6565b005b61008760048036038101906100829190610765565b610270565b005b6100a3600480360381019061009e91906107a5565b6104fe565b6040516100b19291906107fc565b60405180910390f35b6100d460048036038101906100cf91906106da565b61052f565b005b60008111610119576040517f08c379a000000000000000000000000000000000000000000000000000000000815260040161011090610882565b60405180910390fd5b6000803373ffffffffffffffffffffffffffffffffffffffff1673ffffffffffffffffffffffffffffffffffffffff16815260200190815260200160002060010160009054906101000a900460ff166101c75760016000803373ffffffffffffffffffffffffffffffffffffffff1673ffffffffffffffffffffffffffffffffffffffff16815260200190815260200160002060010160006101000a81548160ff0219169083151502179055505b806000803373ffffffffffffffffffffffffffffffffffffffff1673ffffffffffffffffffffffffffffffffffffffff168152602001908152602001600020600001600082825461021891906108d1565b925050819055503373ffffffffffffffffffffffffffffffffffffffff167fa12aa3e5afec39e5f96373002c65244329275989d3e5fef19845585eecb03edf826040516102659190610905565b60405180910390a250565b600081116102b3576040517f08c379a00000000000000000000000000000000000000000000000000000000081526004016102aa90610882565b60405180910390fd5b806000803373ffffffffffffffffffffffffffffffffffffffff1673ffffffffffffffffffffffffffffffffffffffff168152602001908152602001600020600001541015610337576040517f08c379a000000000000000000000000000000000000000000000000000000000815260040161032e9061096c565b60405180910390fd5b6000808373ffffffffffffffffffffffffffffffffffffffff1673ffffffffffffffffffffffffffffffffffffffff16815260200190815260200160002060010160009054906101000a900460ff166103e55760016000808473ffffffffffffffffffffffffffffffffffffffff1673ffffffffffffffffffffffffffffffffffffffff16815260200190815260200160002060010160006101000a81548160ff0219169083151502179055505b806000803373ffffffffffffffffffffffffffffffffffffffff1673ffffffffffffffffffffffffffffffffffffffff1681526020019081526020016000206000016000828254610436919061098c565b92505081905550806000808473ffffffffffffffffffffffffffffffffffffffff1673ffffffffffffffffffffffffffffffffffffffff168152602001908152602001600020600001600082825461048e91906108d1565b925050819055508173ffffffffffffffffffffffffffffffffffffffff163373ffffffffffffffffffffffffffffffffffffffff167f8368079d4813055221156198c714ea6a6742cfcec7c979383b0085e1cc738dc0836040516104f29190610905565b60405180910390a35050565b60006020528060005260406000206000915090508060000154908060010160009054906101000a900460ff16905082565b60008111610572576040517f08c379a000000000000000000000000000000000000000000000000000000000815260040161056990610882565b60405180910390fd5b806000803373ffffffffffffffffffffffffffffffffffffffff1673ffffffffffffffffffffffffffffffffffffffff1681526020019081526020016000206000015410156105f6576040517f08c379a00000000000000000000000000000000000000000000000000000000081526004016105ed9061096c565b60405180910390fd5b806000803373ffffffffffffffffffffffffffffffffffffffff1673ffffffffffffffffffffffffffffffffffffffff1681526020019081526020016000206000016000828254610647919061098c565b925050819055503373ffffffffffffffffffffffffffffffffffffffff167fc37df5d14f305277c1289e9a188a097cda6684189c95f785feb056cb77a8c910826040516106949190610905565b60405180910390a250565b600080fd5b6000819050919050565b6106b7816106a4565b81146106c257600080fd5b50565b6000813590506106d4816106ae565b92915050565b6000602082840312156106f0576106ef61069f565b5b60006106fe848285016106c5565b91505092915050565b600073ffffffffffffffffffffffffffffffffffffffff82169050919050565b600061073282610707565b9050919050565b61074281610727565b811461074d57600080fd5b50565b60008135905061075f81610739565b92915050565b6000806040838503121561077c5761077b61069f565b5b600061078a85828601610750565b925050602061079b858286016106c5565b9150509250929050565b6000602082840312156107bb576107ba61069f565b5b60006107c984828501610750565b91505092915050565b6107db816106a4565b82525050565b60008115159050919050565b6107f6816107e1565b82525050565b600060408201905061081160008301856107d2565b61081e60208301846107ed565b9392505050565b600082825260208201905092915050565b7f416d6f756e74206d7573742062652067726561746572207468616e2030000000600082015250565b600061086c601d83610825565b915061087782610836565b602082019050919050565b6000602082019050818103600083015261089b8161085f565b9050919050565b7f4e487b7100000000000000000000000000000000000000000000000000000000600052601160045260246000fd5b60006108dc826106a4565b91506108e7836106a4565b92508282019050808211156108ff576108fe6108a2565b5b92915050565b600060208201905061091a60008301846107d2565b92915050565b7f496e73756666696369656e7420706f696e747300000000000000000000000000600082015250565b6000610956601383610825565b915061096182610920565b602082019050919050565b6000602082019050818103600083015261098581610949565b9050919050565b6000610997826106a4565b91506109a2836106a4565b92508282039050818111156109ba576109b96108a2565b5b9291505056fea264697066735822122077207b0a14511280d0a038ae2b3ae2649b41c7b57f5bf43e5113eb9810ee06f564736f6c63430008130033",
  "immutableReferences": {},
  "source": "//SPDX-License-Identifier: UNLICENSED\r\npragma solidity ^0.8.0;\r\n\r\ncontract LoyaltyPointExchangeSystem {\r\n    struct User {\r\n        uint points;\r\n        bool exists;\r\n    }\r\n    \r\n    mapping (address => User) public users;\r\n    \r\n    event PointsAccumulated(address indexed user, uint amount);\r\n    event PointsRedeemed(address indexed user, uint amount);\r\n    event PointsTransferred(address indexed from, address indexed to, uint amount);\r\n    \r\n    function accumulatePoints(uint amount) public {\r\n        require(amount > 0, \"Amount must be greater than 0\");\r\n        \r\n        if (!users[msg.sender].exists) {\r\n            users[msg.sender].exists = true;\r\n        }\r\n        \r\n        users[msg.sender].points += amount;\r\n        \r\n        emit PointsAccumulated(msg.sender, amount);\r\n    }\r\n    \r\n    function redeemPoints(uint amount) public {\r\n        require(amount > 0, \"Amount must be greater than 0\");\r\n        require(users[msg.sender].points >= amount, \"Insufficient points\");\r\n        \r\n        users[msg.sender].points -= amount;\r\n        \r\n        emit PointsRedeemed(msg.sender, amount);\r\n    }\r\n    \r\n    function transferPoints(address recipient, uint amount) public {\r\n        require(amount > 0, \"Amount must be greater than 0\");\r\n        require(users[msg.sender].points >= amount, \"Insufficient points\");\r\n        \r\n        if (!users[recipient].exists) {\r\n            users[recipient].exists = true;\r\n        }\r\n        \r\n        users[msg.sender].points -= amount;\r\n        users[recipient].points += amount;\r\n        \r\n        emit PointsTransferred(msg.sender, recipient, amount);\r\n    }\r\n}",
  "sourcePath": "Y:\\Truffle\\contracts\\LoyaltyPoint.sol",
  "compiler": {
    "name": "solc",
    "version": "0.8.19+commit.7dd6d404.Emscripten.clang"
  },
  "schemaVersion": "3.4.13",
  "updatedAt": "2023-04-11T04:30:24.030Z",
  "devdoc": {
    "kind": "dev",
    "methods": {},
    "version": 1
  },
  "userdoc": {
    "kind": "user",
    "methods": {},
    "version": 1
  }
}